{"abi":[{"type":"constructor","inputs":[{"name":"pools","type":"tuple[]","internalType":"struct Get_V4PoolState.V4Pool[]","components":[{"name":"pool","type":"bytes32","internalType":"bytes32"},{"name":"tickSpacing","type":"int24","internalType":"int24"}]},{"name":"stateView","type":"address","internalType":"address"}],"stateMutability":"nonpayable"},{"type":"function","name":"allPoolData","inputs":[{"name":"","type":"uint256","internalType":"uint256"}],"outputs":[{"name":"pool","type":"bytes32","internalType":"bytes32"},{"name":"feeGrowthGlobal0","type":"uint256","internalType":"uint256"},{"name":"feeGrowthGlobal1","type":"uint256","internalType":"uint256"},{"name":"feeGrowthOutside0X128","type":"uint256","internalType":"uint256"},{"name":"feeGrowthOutside1X128","type":"uint256","internalType":"uint256"},{"name":"liquidity","type":"uint128","internalType":"uint128"},{"name":"sqrtPriceX96","type":"uint160","internalType":"uint160"},{"name":"tick","type":"int24","internalType":"int24"},{"name":"tickBitmap","type":"uint256","internalType":"uint256"},{"name":"wordPos","type":"int16","internalType":"int16"},{"name":"liquidityNet","type":"int128","internalType":"int128"},{"name":"liquidityGross","type":"uint128","internalType":"uint128"}],"stateMutability":"view"}],"bytecode":{"object":"0x6080604052346100de5761094c803803809161001a826100f6565b6080398060800190604081126100de57608051916001600160401b0383116100de5780609f840112156100de576080830151916001600160401b0383116100e2576040519361006f60208560051b0186610137565b83855260a0602086019460061b8201019283116100de5760a001925b8284106100a3578461009d60a061018b565b90610544565b6040608085840301126100de57602060409182516100c08161011c565b865181526100cf83880161016c565b8382015281520193019261008b565b5f80fd5b634e487b7160e01b5f52604160045260245ffd5b6080601f91909101601f19168101906001600160401b038211908210176100e257604052565b604081019081106001600160401b038211176100e257604052565b601f909101601f19168101906001600160401b038211908210176100e257604052565b6040519061016a61018083610137565b565b51908160020b82036100de57565b6001600160a01b038116036100de57565b519061016a8261017a565b634e487b7160e01b5f52603260045260245ffd5b80518210156101be5760209160051b010190565b610196565b519062ffffff821682036100de57565b91908260809103126100de5781516101ea8161017a565b916101f76020820161016c565b916102106060610209604085016101c3565b93016101c3565b90565b6040513d5f823e3d90fd5b60020b9060020b90811561025457627fffff1981145f19831416610240570590565b634e487b7160e01b5f52601160045260245ffd5b634e487b7160e01b5f52601260045260245ffd5b908160209103126100de575190565b51906001600160801b03821682036100de57565b908160209103126100de5761021090610277565b91908260409103126100de5760206102b683610277565b92015180600f0b81036100de5790565b91908260409103126100de576020825192015190565b5f5490680100000000000000008210156100e25760018201805f558210156101be57600961042661016061016a945f8052600a60205f2091020193805185556020810151600186015560408101516002860155606081015160038601556080810151600486015561037c61035960a083015160018060801b031690565b6005870180546001600160801b0319166001600160801b03909216919091179055565b60c081015160068601805460e084015160a01b62ffffff60a01b166001600160a01b039093166001600160b81b0319909116179190911790556101008101516007860155610418600886016103ec6103d961012085015160010b90565b829061ffff198254169061ffff16179055565b610140830151815460109190911b62010000600160901b031662010000600160901b0319909116179055565b01516001600160801b031690565b910180546001600160801b0319166001600160801b03909216919091179055565b60406020820191602081525f5480935201905f805260205f20905f5b8181106104705750505090565b909192600a610180600192865481528387015460208201526002870154604082015260038701546060820152600487015460808201526104cc6104bc600589015460018060801b031690565b6001600160801b031660a0830152565b600687015460a085811b86900382166001600160a01b031660c08401521c60020b60e082015260078701546101008201526105256008880154610517610120840182880b60010b9052565b60101c600f0b610140830152565b60098701546001600160801b0316610160820152019401929101610463565b906001600160a01b03165f5b825181101561092457610589608061056883866101aa565b515160405180938192633205590760e21b8352600483019190602083019252565b0381865afa90811561081f575f905f926108ef575b50610615906105d96105c76105c160206105b8888b6101aa565b51015160020b90565b8561021e565b9060ff8260020b60081d60010b921690565b506020816105e7878a6101aa565b515160405163071f32d360e21b8152600481019190915260019190910b602482015293849081906044820190565b0381895afa801561081f57610659935f916108c1575b506020610638878a6101aa565b51516040518096819263fa6793d560e01b8352600483019190602083019252565b03818a5afa93841561081f575f9461088f575b508460406106ac959661067f898c6101aa565b515182516332bb6ad560e21b8152600481019190915260029190910b602482015295869081906044820190565b03818b5afa93841561081f576106f2965f965f96610859575b5060406106d28a8d6101aa565b51518151809a81926313d8a71960e31b8352600483019190602083019252565b03818d5afa801561081f578a8a8d5f9b5f94610824575b506107489261071b60409389936101aa565b51518351809581948293634515dcf360e11b8452600484019092916020906040830194835260020b910152565b03915afa91821561081f578b8e5f935f956107e7575b5090610769916101aa565b51519a61077461015a565b9b8c5260208c015260408b015260608a015260808901526001600160801b031660a08801526001600160a01b031660c087015260020b60e086015261010085015260010b610120840152600f0b6101408301526001600160801b03166101608201526107df906102dc565b600101610550565b61080f91955061076992945060403d8111610818575b6108078183610137565b8101906102c6565b9490939161075e565b503d6107fd565b610213565b6040929c50879194509261071b61084a61074895853d8111610818576108078183610137565b9e909e96935093505092610709565b90955061087e91965060403d8111610888575b6108768183610137565b81019061029f565b959095945f6106c5565b503d61086c565b6106ac94506108b49060203d81116108ba575b6108ac8183610137565b81019061028b565b9361066c565b503d6108a2565b6108e2915060203d81116108e8575b6108da8183610137565b810190610268565b5f61062b565b503d6108d0565b6106159250610915915060803d811161091d575b61090d8183610137565b8101906101d3565b50509161059e565b503d610903565b60405160208101906109478161093984610447565b03601f198101835282610137565b5190f3fe","linkReferences":{}},"deployedBytecode":{"object":"0x6080806040526004361015610012575f80fd5b5f3560e01c63c3401e0714610025575f80fd5b346102625760207ffffffffffffffffffffffffffffffffffffffffffffffffffffffffffffffffc36011261026257600435905f5482101561026257600a610180925f805202807f290decd9548b62a8d60345a988386fc84ba6bc95484008f6362f93160ef3e5630154907f290decd9548b62a8d60345a988386fc84ba6bc95484008f6362f93160ef3e5648101547f290decd9548b62a8d60345a988386fc84ba6bc95484008f6362f93160ef3e5658201547f290decd9548b62a8d60345a988386fc84ba6bc95484008f6362f93160ef3e5668301547f290decd9548b62a8d60345a988386fc84ba6bc95484008f6362f93160ef3e5678401546fffffffffffffffffffffffffffffffff7f290decd9548b62a8d60345a988386fc84ba6bc95484008f6362f93160ef3e56886015416917f290decd9548b62a8d60345a988386fc84ba6bc95484008f6362f93160ef3e569860154937f290decd9548b62a8d60345a988386fc84ba6bc95484008f6362f93160ef3e56a870154956fffffffffffffffffffffffffffffffff7f290decd9548b62a8d60345a988386fc84ba6bc95484008f6362f93160ef3e56c7f290decd9548b62a8d60345a988386fc84ba6bc95484008f6362f93160ef3e56b8a015499015416988a5260208a015260408901526060880152608087015260a086015273ffffffffffffffffffffffffffffffffffffffff811660c086015260a01c60020b60e08501526101008401528060010b61012084015260101c600f0b610140830152610160820152f35b5f80fdfea264697066735822122012c529368956a3cde9f79f16109403893460719d16948fd5b26c4d8a768e884764736f6c634300081c0033","linkReferences":{}},"methodIdentifiers":{"allPoolData(uint256)":"c3401e07"},"id":6}