{"abi":[{"type":"constructor","inputs":[{"name":"pools","type":"address[]","internalType":"address[]"}],"stateMutability":"nonpayable"},{"type":"function","name":"reserves","inputs":[{"name":"","type":"uint256","internalType":"uint256"}],"outputs":[{"name":"pool","type":"address","internalType":"address"},{"name":"reserve0","type":"uint112","internalType":"uint112"},{"name":"reserve1","type":"uint112","internalType":"uint112"},{"name":"blockTimestampLast","type":"uint32","internalType":"uint32"}],"stateMutability":"view"}],"bytecode":{"object":"0x6080604052346100b457610429803803809161001a826100cc565b60803960208160800191126100b4576080516001600160401b0381116100b45781609f820112156100b4576080810151916001600160401b0383116100b8578260051b916040519361006f60208501866100f2565b845260a060208501938201019182116100b45760a001915b81831061009457836102ed565b82516001600160a01b03811681036100b457815260209283019201610087565b5f80fd5b634e487b7160e01b5f52604160045260245ffd5b6080601f91909101601f19168101906001600160401b038211908210176100b857604052565b601f909101601f19168101906001600160401b038211908210176100b857604052565b604051906101246080836100f2565b565b634e487b7160e01b5f52603260045260245ffd5b805182101561014e5760209160051b010190565b610126565b51906001600160701b03821682036100b457565b908160609103126100b45761017b81610153565b91604061018a60208401610153565b92015163ffffffff811681036100b45790565b6040513d5f823e3d90fd5b5f5490680100000000000000008210156100b85760018201805f5582101561014e575f8052805160019290921b7f290decd9548b62a8d60345a988386fc84ba6bc95484008f6362f93160ef3e563810180546001600160a01b0319166001600160a01b03909416939093179092556020810151604082015160609092015160e01b6001600160e01b0319166001600160701b0390911660709290921b600160701b600160e01b031691909117177f290decd9548b62a8d60345a988386fc84ba6bc95484008f6362f93160ef3e56490910155565b60406020820191602081525f5480935201905f805260205f20905f5b8181106102a55750505090565b82546001600160a01b031684526001808401546001600160701b038082166020880152607082901c16604087015260e01c606086015260809094019360029093019201610298565b5f5b81518110156104015780606061032961031d61031d6103106004968861013a565b516001600160a01b031690565b6001600160a01b031690565b604051630240bc6b60e21b815293849182905afa80156103fc576001926103bb915f905f5f916103c1575b6103b69293506103a99061039961036e610310898c61013a565b9561038961037a610115565b6001600160a01b039098168852565b6001600160701b03166020870152565b6001600160701b03166040850152565b63ffffffff166060830152565b6101a8565b016102ef565b5050506103b66103ea6103a99260603d81116103f5575b6103e281836100f2565b810190610167565b919350839250610354565b503d6103d8565b61019d565b6040516020810190610424816104168461027c565b03601f1981018352826100f2565b5190f3fe","linkReferences":{}},"deployedBytecode":{"object":"0x6080806040526004361015610012575f80fd5b5f3560e01c638334278d14610025575f80fd5b346101045760207ffffffffffffffffffffffffffffffffffffffffffffffffffffffffffffffffc36011261010457600435905f54821015610104576080915f805260011b7f290decd9548b62a8d60345a988386fc84ba6bc95484008f6362f93160ef3e56473ffffffffffffffffffffffffffffffffffffffff827f290decd9548b62a8d60345a988386fc84ba6bc95484008f6362f93160ef3e5630154169101549082526dffffffffffffffffffffffffffff811660208301526dffffffffffffffffffffffffffff8160701c16604083015260e01c6060820152f35b5f80fdfea2646970667358221220e9836255a177fcea1df449ea0981b2ebf5559c9d712013c6b7d6bdb02bb06c6f64736f6c634300081c0033","linkReferences":{}},"methodIdentifiers":{"reserves(uint256)":"8334278d"},"id":3}