{"abi":[{"type":"constructor","inputs":[{"name":"tokens","type":"address[]","internalType":"address[]"},{"name":"owner","type":"address","internalType":"address"}],"stateMutability":"nonpayable"},{"type":"function","name":"balances","inputs":[{"name":"","type":"uint256","internalType":"uint256"}],"outputs":[{"name":"token","type":"address","internalType":"address"},{"name":"balance","type":"uint256","internalType":"uint256"}],"stateMutability":"view"}],"bytecode":{"object":"0x6080604052346100b857610330803803809161001a826100d0565b60803960408160800191126100b857608051906001600160401b0382116100b85780609f830112156100b8576080820151916001600160401b0383116100bc578260051b906040519361007060208401866100f6565b845260a060208501928201019283116100b85760a001905b8282106100a0578361009a60a061012a565b90610226565b602080916100ad8461012a565b815201910190610088565b5f80fd5b634e487b7160e01b5f52604160045260245ffd5b6080601f91909101601f19168101906001600160401b038211908210176100bc57604052565b601f909101601f19168101906001600160401b038211908210176100bc57604052565b604051906101286040836100f6565b565b51906001600160a01b03821682036100b857565b634e487b7160e01b5f52603260045260245ffd5b80518210156101665760209160051b010190565b61013e565b908160209103126100b8575190565b6040513d5f823e3d90fd5b5f54680100000000000000008110156100bc5760018101805f558110156101665760206001915f8052815f2090831b0192828060a01b03815116838060a01b03198554161784550151910155565b60406020820191602081525f5480935201905f805260205f20905f5b8181106101fc5750505090565b82546001600160a01b031684526001808401546020860152604090940193600290930192016101ef565b905f5b82518110156103085761024c61023f8285610152565b516001600160a01b031690565b9061026c61026061026061023f8488610152565b6001600160a01b031690565b6040516370a0823160e01b81526001600160a01b038516600482015290602090829060249082905afa928315610303576001936102cf925f916102d5575b506102c56102b6610119565b6001600160a01b039093168352565b6020820152610185565b01610229565b6102f6915060203d81116102fc575b6102ee81836100f6565b81019061016b565b5f6102aa565b503d6102e4565b61017a565b604051602081019061032b8161031d846101d3565b03601f1981018352826100f6565b5190f3fe","linkReferences":{}},"deployedBytecode":{"object":"0x60808060405260043610156011575f80fd5b5f3560e01c634903b0d1146023575f80fd5b3460cd5760207ffffffffffffffffffffffffffffffffffffffffffffffffffffffffffffffffc36011260cd57600435905f5482101560cd576040915f805260011b7f290decd9548b62a8d60345a988386fc84ba6bc95484008f6362f93160ef3e56473ffffffffffffffffffffffffffffffffffffffff827f290decd9548b62a8d60345a988386fc84ba6bc95484008f6362f93160ef3e5630154169101549082526020820152f35b5f80fdfea2646970667358221220fdf6a1116f3bb936fa479341e0dd22540098e6961656ba3f5b50f4d50454576264736f6c634300081c0033","linkReferences":{}},"methodIdentifiers":{"balances(uint256)":"4903b0d1"},"id":0}