{
    "abi": [
        {
            "type": "constructor",
            "inputs": [
                {
                    "name": "tokens",
                    "type": "address[]",
                    "internalType": "address[]"
                },
                {
                    "name": "owner",
                    "type": "address",
                    "internalType": "address"
                }
            ],
            "stateMutability": "nonpayable"
        },
        {
            "type": "function",
            "name": "balances",
            "inputs": [
                {
                    "name": "",
                    "type": "uint256",
                    "internalType": "uint256"
                }
            ],
            "outputs": [
                {
                    "name": "token",
                    "type": "address",
                    "internalType": "address"
                },
                {
                    "name": "balance",
                    "type": "uint256",
                    "internalType": "uint256"
                }
            ],
            "stateMutability": "view"
        }
    ],
    "bytecode": {
        "object": "0x608060405234801561000f575f5ffd5b5060405161062238038061062283398181016040528101906100319190610382565b5f5f90505b8251811015610199575f604051806040016040528085848151811061005e5761005d6103dc565b5b602002602001015173ffffffffffffffffffffffffffffffffffffffff168152602001858481518110610094576100936103dc565b5b602002602001015173ffffffffffffffffffffffffffffffffffffffff166370a08231866040518263ffffffff1660e01b81526004016100d49190610418565b602060405180830381865afa1580156100ef573d5f5f3e3d5ffd5b505050506040513d601f19601f820116820180604052508101906101139190610464565b815250908060018154018082558091505060019003905f5260205f2090600202015f909190919091505f820151815f015f6101000a81548173ffffffffffffffffffffffffffffffffffffffff021916908373ffffffffffffffffffffffffffffffffffffffff1602179055506020820151816001015550508080600101915050610036565b505f5f6040516020016101ac9190610601565b60405160208183030381529060405290506020810180590381f35b5f604051905090565b5f5ffd5b5f5ffd5b5f5ffd5b5f601f19601f8301169050919050565b7f4e487b71000000000000000000000000000000000000000000000000000000005f52604160045260245ffd5b610222826101dc565b810181811067ffffffffffffffff82111715610241576102406101ec565b5b80604052505050565b5f6102536101c7565b905061025f8282610219565b919050565b5f67ffffffffffffffff82111561027e5761027d6101ec565b5b602082029050602081019050919050565b5f5ffd5b5f73ffffffffffffffffffffffffffffffffffffffff82169050919050565b5f6102bc82610293565b9050919050565b6102cc816102b2565b81146102d6575f5ffd5b50565b5f815190506102e7816102c3565b92915050565b5f6102ff6102fa84610264565b61024a565b905080838252602082019050602084028301858111156103225761032161028f565b5b835b8181101561034b578061033788826102d9565b845260208401935050602081019050610324565b5050509392505050565b5f82601f830112610369576103686101d8565b5b81516103798482602086016102ed565b91505092915050565b5f5f60408385031215610398576103976101d0565b5b5f83015167ffffffffffffffff8111156103b5576103b46101d4565b5b6103c185828601610355565b92505060206103d2858286016102d9565b9150509250929050565b7f4e487b71000000000000000000000000000000000000000000000000000000005f52603260045260245ffd5b610412816102b2565b82525050565b5f60208201905061042b5f830184610409565b92915050565b5f819050919050565b61044381610431565b811461044d575f5ffd5b50565b5f8151905061045e8161043a565b92915050565b5f60208284031215610479576104786101d0565b5b5f61048684828501610450565b91505092915050565b5f81549050919050565b5f82825260208201905092915050565b5f819050815f5260205f209050919050565b5f815f1c9050919050565b5f73ffffffffffffffffffffffffffffffffffffffff82169050919050565b5f6104f76104f2836104bb565b6104c6565b9050919050565b610507816102b2565b82525050565b5f819050919050565b5f610528610523836104bb565b61050d565b9050919050565b61053881610431565b82525050565b604082015f5f8301549050610552816104e5565b61055e5f8601826104fe565b506001830154905061056f81610516565b61057c602086018261052f565b5050505050565b5f61058e838361053e565b60408301905092915050565b5f600282019050919050565b5f6105b08261048f565b6105ba8185610499565b93506105c5836104a9565b805f5b838110156105f457816105db8882610583565b97506105e68361059a565b9250506001810190506105c8565b5085935050505092915050565b5f6020820190508181035f83015261061981846105a6565b90509291505056fe",
        "linkReferences": {}
    },
    "deployedBytecode": {
        "object": "0x608060405234801561000f575f5ffd5b5060043610610029575f3560e01c80634903b0d11461002d575b5f5ffd5b610047600480360381019061004291906100e2565b61005e565b60405161005592919061015b565b60405180910390f35b5f818154811061006c575f80fd5b905f5260205f2090600202015f91509050805f015f9054906101000a900473ffffffffffffffffffffffffffffffffffffffff16908060010154905082565b5f5ffd5b5f819050919050565b6100c1816100af565b81146100cb575f5ffd5b50565b5f813590506100dc816100b8565b92915050565b5f602082840312156100f7576100f66100ab565b5b5f610104848285016100ce565b91505092915050565b5f73ffffffffffffffffffffffffffffffffffffffff82169050919050565b5f6101368261010d565b9050919050565b6101468161012c565b82525050565b610155816100af565b82525050565b5f60408201905061016e5f83018561013d565b61017b602083018461014c565b939250505056fea2646970667358221220836703b2929bed83d50a21aa03511835b6858b4a82a02863bdee25c13c7ec50864736f6c634300081c0033",
        "linkReferences": {}
    },
    "methodIdentifiers": {
        "balances(uint256)": "4903b0d1"
    },
    "id": 0
}