{"abi":[{"type":"constructor","inputs":[{"name":"pools","type":"tuple[]","internalType":"struct Get_V4PoolState.V4Pool[]","components":[{"name":"pool","type":"bytes32","internalType":"bytes32"},{"name":"tickSpacing","type":"int24","internalType":"int24"}]},{"name":"stateView","type":"address","internalType":"address"}],"stateMutability":"nonpayable"},{"type":"function","name":"allPoolData","inputs":[{"name":"","type":"uint256","internalType":"uint256"}],"outputs":[{"name":"pool","type":"bytes32","internalType":"bytes32"},{"name":"liquidity","type":"uint128","internalType":"uint128"},{"name":"sqrtPriceX96","type":"uint160","internalType":"uint160"},{"name":"tick","type":"int24","internalType":"int24"},{"name":"tickBitmap","type":"uint256","internalType":"uint256"},{"name":"wordPos","type":"int16","internalType":"int16"},{"name":"liquidityNet","type":"int128","internalType":"int128"},{"name":"liquidityGross","type":"uint128","internalType":"uint128"}],"stateMutability":"view"}],"bytecode":{"object":"0x608060405234801561000f575f5ffd5b50604051610f32380380610f32833981810160405281019061003191906107de565b5f8190505f5f90505b8351811015610524575f5f8373ffffffffffffffffffffffffffffffffffffffff1663c815641c87858151811061007457610073610838565b5b60200260200101515f01516040518263ffffffff1660e01b815260040161009b9190610874565b608060405180830381865afa1580156100b6573d5f5f3e3d5ffd5b505050506040513d601f19601f820116820180604052508101906100da91906108ef565b5050915091505f6101198785815181106100f7576100f6610838565b5b6020026020010151602001518361010e91906109ad565b61055260201b60201c565b5090505f8573ffffffffffffffffffffffffffffffffffffffff16631c7ccb4c89878151811061014c5761014b610838565b5b60200260200101515f0151846040518363ffffffff1660e01b8152600401610175929190610a30565b602060405180830381865afa158015610190573d5f5f3e3d5ffd5b505050506040513d601f19601f820116820180604052508101906101b49190610a8a565b90505f8673ffffffffffffffffffffffffffffffffffffffff1663fa6793d58a88815181106101e6576101e5610838565b5b60200260200101515f01516040518263ffffffff1660e01b815260040161020d9190610874565b602060405180830381865afa158015610228573d5f5f3e3d5ffd5b505050506040513d601f19601f8201168201806040525081019061024c9190610afa565b90505f5f8873ffffffffffffffffffffffffffffffffffffffff1663caedab548c8a8151811061027f5761027e610838565b5b60200260200101515f0151886040518363ffffffff1660e01b81526004016102a8929190610b34565b6040805180830381865afa1580156102c2573d5f5f3e3d5ffd5b505050506040513d601f19601f820116820180604052508101906102e69190610b91565b915091505f6040518061010001604052808d8b8151811061030a57610309610838565b5b60200260200101515f01518152602001856fffffffffffffffffffffffffffffffff1681526020018973ffffffffffffffffffffffffffffffffffffffff1681526020018860020b81526020018681526020018760010b815260200183600f0b8152602001846fffffffffffffffffffffffffffffffff16815250908060018154018082558091505060019003905f5260205f2090600602015f909190919091505f820151815f01556020820151816001015f6101000a8154816fffffffffffffffffffffffffffffffff02191690836fffffffffffffffffffffffffffffffff1602179055506040820151816002015f6101000a81548173ffffffffffffffffffffffffffffffffffffffff021916908373ffffffffffffffffffffffffffffffffffffffff16021790555060608201518160020160146101000a81548162ffffff021916908360020b62ffffff1602179055506080820151816003015560a0820151816004015f6101000a81548161ffff021916908360010b61ffff16021790555060c08201518160040160026101000a8154816fffffffffffffffffffffffffffffffff0219169083600f0b6fffffffffffffffffffffffffffffffff16021790555060e0820151816005015f6101000a8154816fffffffffffffffffffffffffffffffff02191690836fffffffffffffffffffffffffffffffff160217905550505050505050505050808060010191505061003a565b505f5f6040516020016105379190610f11565b60405160208183030381529060405290506020810180590381f35b5f5f60088360020b901d915060ff83169050915091565b5f604051905090565b5f5ffd5b5f5ffd5b5f5ffd5b5f601f19601f8301169050919050565b7f4e487b71000000000000000000000000000000000000000000000000000000005f52604160045260245ffd5b6105c48261057e565b810181811067ffffffffffffffff821117156105e3576105e261058e565b5b80604052505050565b5f6105f5610569565b905061060182826105bb565b919050565b5f67ffffffffffffffff8211156106205761061f61058e565b5b602082029050602081019050919050565b5f5ffd5b5f5ffd5b5f819050919050565b61064b81610639565b8114610655575f5ffd5b50565b5f8151905061066681610642565b92915050565b5f8160020b9050919050565b6106818161066c565b811461068b575f5ffd5b50565b5f8151905061069c81610678565b92915050565b5f604082840312156106b7576106b6610635565b5b6106c160406105ec565b90505f6106d084828501610658565b5f8301525060206106e38482850161068e565b60208301525092915050565b5f6107016106fc84610606565b6105ec565b9050808382526020820190506040840283018581111561072457610723610631565b5b835b8181101561074d578061073988826106a2565b845260208401935050604081019050610726565b5050509392505050565b5f82601f83011261076b5761076a61057a565b5b815161077b8482602086016106ef565b91505092915050565b5f73ffffffffffffffffffffffffffffffffffffffff82169050919050565b5f6107ad82610784565b9050919050565b6107bd816107a3565b81146107c7575f5ffd5b50565b5f815190506107d8816107b4565b92915050565b5f5f604083850312156107f4576107f3610572565b5b5f83015167ffffffffffffffff81111561081157610810610576565b5b61081d85828601610757565b925050602061082e858286016107ca565b9150509250929050565b7f4e487b71000000000000000000000000000000000000000000000000000000005f52603260045260245ffd5b61086e81610639565b82525050565b5f6020820190506108875f830184610865565b92915050565b61089681610784565b81146108a0575f5ffd5b50565b5f815190506108b18161088d565b92915050565b5f62ffffff82169050919050565b6108ce816108b7565b81146108d8575f5ffd5b50565b5f815190506108e9816108c5565b92915050565b5f5f5f5f6080858703121561090757610906610572565b5b5f610914878288016108a3565b94505060206109258782880161068e565b9350506040610936878288016108db565b9250506060610947878288016108db565b91505092959194509250565b7f4e487b71000000000000000000000000000000000000000000000000000000005f52601260045260245ffd5b7f4e487b71000000000000000000000000000000000000000000000000000000005f52601160045260245ffd5b5f6109b78261066c565b91506109c28361066c565b9250826109d2576109d1610953565b5b60015f0383147fffffffffffffffffffffffffffffffffffffffffffffffffffffffffff80000083141615610a0a57610a09610980565b5b828205905092915050565b5f8160010b9050919050565b610a2a81610a15565b82525050565b5f604082019050610a435f830185610865565b610a506020830184610a21565b9392505050565b5f819050919050565b610a6981610a57565b8114610a73575f5ffd5b50565b5f81519050610a8481610a60565b92915050565b5f60208284031215610a9f57610a9e610572565b5b5f610aac84828501610a76565b91505092915050565b5f6fffffffffffffffffffffffffffffffff82169050919050565b610ad981610ab5565b8114610ae3575f5ffd5b50565b5f81519050610af481610ad0565b92915050565b5f60208284031215610b0f57610b0e610572565b5b5f610b1c84828501610ae6565b91505092915050565b610b2e8161066c565b82525050565b5f604082019050610b475f830185610865565b610b546020830184610b25565b9392505050565b5f81600f0b9050919050565b610b7081610b5b565b8114610b7a575f5ffd5b50565b5f81519050610b8b81610b67565b92915050565b5f5f60408385031215610ba757610ba6610572565b5b5f610bb485828601610ae6565b9250506020610bc585828601610b7d565b9150509250929050565b5f81549050919050565b5f82825260208201905092915050565b5f819050815f5260205f209050919050565b5f815f1c9050919050565b5f819050919050565b5f610c21610c1c83610bfb565b610c06565b9050919050565b610c3181610639565b82525050565b5f6fffffffffffffffffffffffffffffffff82169050919050565b5f610c64610c5f83610bfb565b610c37565b9050919050565b610c7481610ab5565b82525050565b5f73ffffffffffffffffffffffffffffffffffffffff82169050919050565b5f610cab610ca683610bfb565b610c7a565b9050919050565b610cbb81610784565b82525050565b5f8160a01c9050919050565b5f8160020b9050919050565b5f610ceb610ce683610cc1565b610ccd565b9050919050565b610cfb8161066c565b82525050565b5f819050919050565b5f610d1c610d1783610bfb565b610d01565b9050919050565b610d2c81610a57565b82525050565b5f8160010b9050919050565b5f610d50610d4b83610bfb565b610d32565b9050919050565b610d6081610a15565b82525050565b5f8160101c9050919050565b5f81600f0b9050919050565b5f610d90610d8b83610d66565b610d72565b9050919050565b610da081610b5b565b82525050565b61010082015f5f8301549050610dbb81610c0f565b610dc75f860182610c28565b5060018301549050610dd881610c52565b610de56020860182610c6b565b5060028301549050610df681610c99565b610e036040860182610cb2565b50610e0d81610cd9565b610e1a6060860182610cf2565b5060038301549050610e2b81610d0a565b610e386080860182610d23565b5060048301549050610e4981610d3e565b610e5660a0860182610d57565b50610e6081610d7e565b610e6d60c0860182610d97565b5060058301549050610e7e81610c52565b610e8b60e0860182610c6b565b5050505050565b5f610e9d8383610da6565b6101008301905092915050565b5f600682019050919050565b5f610ec082610bcf565b610eca8185610bd9565b9350610ed583610be9565b805f5b83811015610f045781610eeb8882610e92565b9750610ef683610eaa565b925050600181019050610ed8565b5085935050505092915050565b5f6020820190508181035f830152610f298184610eb6565b90509291505056fe","linkReferences":{}},"deployedBytecode":{"object":"0x608060405234801561000f575f5ffd5b5060043610610029575f3560e01c8063c3401e071461002d575b5f5ffd5b61004760048036038101906100429190610168565b610064565b60405161005b989796959493929190610263565b60405180910390f35b5f8181548110610072575f80fd5b905f5260205f2090600602015f91509050805f015490806001015f9054906101000a90046fffffffffffffffffffffffffffffffff1690806002015f9054906101000a900473ffffffffffffffffffffffffffffffffffffffff16908060020160149054906101000a900460020b90806003015490806004015f9054906101000a900460010b908060040160029054906101000a9004600f0b90806005015f9054906101000a90046fffffffffffffffffffffffffffffffff16905088565b5f5ffd5b5f819050919050565b61014781610135565b8114610151575f5ffd5b50565b5f813590506101628161013e565b92915050565b5f6020828403121561017d5761017c610131565b5b5f61018a84828501610154565b91505092915050565b5f819050919050565b6101a581610193565b82525050565b5f6fffffffffffffffffffffffffffffffff82169050919050565b6101cf816101ab565b82525050565b5f73ffffffffffffffffffffffffffffffffffffffff82169050919050565b6101fd816101d5565b82525050565b5f8160020b9050919050565b61021881610203565b82525050565b61022781610135565b82525050565b5f8160010b9050919050565b6102428161022d565b82525050565b5f81600f0b9050919050565b61025d81610248565b82525050565b5f610100820190506102775f83018b61019c565b610284602083018a6101c6565b61029160408301896101f4565b61029e606083018861020f565b6102ab608083018761021e565b6102b860a0830186610239565b6102c560c0830185610254565b6102d260e08301846101c6565b999850505050505050505056fea2646970667358221220daba35137fb3d96750f00c29d947c4c7a160dac8b5ccaeae3c49a79ebc63334064736f6c634300081c0033","linkReferences":{}},"methodIdentifiers":{"allPoolData(uint256)":"c3401e07"},"id":0}