{"abi":[{"type":"constructor","inputs":[{"name":"factory","type":"address","internalType":"address"},{"name":"tokenA","type":"address","internalType":"address"},{"name":"tokenB","type":"address","internalType":"address"}],"stateMutability":"nonpayable"},{"type":"function","name":"pools","inputs":[{"name":"","type":"uint256","internalType":"uint256"}],"outputs":[{"name":"addr","type":"address","internalType":"address"},{"name":"token0","type":"address","internalType":"address"},{"name":"token1","type":"address","internalType":"address"},{"name":"fee","type":"uint24","internalType":"uint24"}],"stateMutability":"view"}],"bytecode":{"object":"0x6080604052346102bf576060610652803803809161001c826102d7565b608039126102bf5761002c610344565b61003660a061035a565b61004060c061035a565b61006e61004d6080610336565b606481526101f46020820152610bb86040820152612710606082015261036e565b6001600160a01b03909216915f5b5f54811015610298578060206100a66100976100e294610453565b905462ffffff9160031b1c1690565b604051630b4c774160e11b81526001600160a01b0380881660048301528616602482015262ffffff909116604482015292839081906064820190565b0381885afa91821561021e575f92610278575b506001600160a01b03821680610111575b50600191500161007c565b604051630dfe168160e01b815292602084600481855afa93841561021e575f94610258575b5060405163d21220a760e01b815291602083600481845afa92831561021e575f93610223575b5060206004916040519283809263ddca3f4360e01b82525afa94851561021e576001956101e2946101dd935f926101e8575b506101c16101d192936101b16101a2610325565b6001600160a01b039098168852565b6001600160a01b03166020870152565b6001600160a01b03166040850152565b62ffffff166060830152565b6104be565b5f610106565b6101d192506102106101c19160203d8111610217575b6102088183610302565b8101906104a3565b925061018e565b503d6101fe565b610498565b6004919350610249602091823d8111610251575b6102418183610302565b810190610481565b93915061015c565b503d610237565b61027191945060203d8111610251576102418183610302565b925f610136565b61029191925060203d8111610251576102418183610302565b905f6100f5565b60405160208101906102bb816102ad846105bb565b03601f198101835282610302565b5190f35b5f80fd5b634e487b7160e01b5f52604160045260245ffd5b6080601f91909101601f19168101906001600160401b038211908210176102fd57604052565b6102c3565b601f909101601f19168101906001600160401b038211908210176102fd57604052565b60405190610334608083610302565b565b906103346040519283610302565b608051906001600160a01b03821682036102bf57565b51906001600160a01b03821682036102bf57565b5f5460045f55806004106103da575b505f80525f5160206106325f395f51905f525f915f5b600481106103a057505055565b909260206103d16001926103b7875162ffffff1690565b908560030262ffffff809160031b9316831b921b19161790565b94019101610393565b5f80525f5160206106325f395f51905f5280546001600160601b03168155600a60099290920191909104017f290decd9548b62a8d60345a988386fc84ba6bc95484008f6362f93160ef3e5645b818110610434575061037d565b5f8155600101610427565b634e487b7160e01b5f52603260045260245ffd5b905f5482101561047c575f8052600a8083045f5160206106325f395f51905f5201920660030290565b61043f565b908160209103126102bf576104959061035a565b90565b6040513d5f823e3d90fd5b908160209103126102bf575162ffffff811681036102bf5790565b600154680100000000000000008110156102fd57600181018060015581101561047c5760015f5281516003919091027fb10e2d527612073b26eecdfd717e6a320cf44b4afac2b0732d9fcbe2b7fa0cf6810180546001600160a01b03199081166001600160a01b039485161790915560208401517fb10e2d527612073b26eecdfd717e6a320cf44b4afac2b0732d9fcbe2b7fa0cf78301805490921690841617905560408301517fb10e2d527612073b26eecdfd717e6a320cf44b4afac2b0732d9fcbe2b7fa0cf89091018054606090940151919092166001600160b81b03199093169290921760a09290921b62ffffff60a01b16919091179055565b6040602082019160208152600154809352019060015f5260205f20905f5b8181106105e65750505090565b82546001600160a01b039081168552600180850154821660208701526002850154918216604087015260a09190911c62ffffff166060860152608090940193600390930192016105d956fe290decd9548b62a8d60345a988386fc84ba6bc95484008f6362f93160ef3e563","linkReferences":{}},"deployedBytecode":{"object":"0x6080806040526004361015610012575f80fd5b5f3560e01c63ac4afa3814610025575f80fd5b346101385760207ffffffffffffffffffffffffffffffffffffffffffffffffffffffffffffffffc36011261013857600435906001548210156101385762ffffff600360809360015f520273ffffffffffffffffffffffffffffffffffffffff817fb10e2d527612073b26eecdfd717e6a320cf44b4afac2b0732d9fcbe2b7fa0cf6015416907fb10e2d527612073b26eecdfd717e6a320cf44b4afac2b0732d9fcbe2b7fa0cf873ffffffffffffffffffffffffffffffffffffffff7fb10e2d527612073b26eecdfd717e6a320cf44b4afac2b0732d9fcbe2b7fa0cf783015416910154918452602084015273ffffffffffffffffffffffffffffffffffffffff8116604084015260a01c166060820152f35b5f80fdfea26469706673582212208280316f3ca2c29f181132b241314247d2d6225f68d6dd05f56234de2e29f98364736f6c634300081c0033","linkReferences":{}},"methodIdentifiers":{"pools(uint256)":"ac4afa38"},"id":5}