{"abi":[{"type":"constructor","inputs":[{"name":"factory","type":"address","internalType":"address"},{"name":"tokenA","type":"address","internalType":"address"},{"name":"tokenB","type":"address","internalType":"address"}],"stateMutability":"nonpayable"},{"type":"function","name":"pools","inputs":[{"name":"","type":"uint256","internalType":"uint256"}],"outputs":[{"name":"addr","type":"address","internalType":"address"},{"name":"token0","type":"address","internalType":"address"},{"name":"token1","type":"address","internalType":"address"},{"name":"fee","type":"uint24","internalType":"uint24"}],"stateMutability":"view"}],"bytecode":{"object":"0x60806040526040518060800160405280606462ffffff1662ffffff1681526020016101f462ffffff1662ffffff168152602001610bb862ffffff1662ffffff16815260200161271062ffffff1662ffffff168152505f90600461006392919061049c565b5034801561006f575f5ffd5b506040516108f63803806108f6833981810160405281019061009191906105bf565b5f5f90505b5f8054905081101561046d575f8473ffffffffffffffffffffffffffffffffffffffff16631698ee8285855f86815481106100d4576100d361060f565b5b905f5260205f2090600a91828204019190066003029054906101000a900462ffffff166040518463ffffffff1660e01b815260040161011593929190610668565b602060405180830381865afa158015610130573d5f5f3e3d5ffd5b505050506040513d601f19601f82011682018060405250810190610154919061069d565b90505f73ffffffffffffffffffffffffffffffffffffffff168173ffffffffffffffffffffffffffffffffffffffff161461045f575f8190505f60405180608001604052808473ffffffffffffffffffffffffffffffffffffffff1681526020018373ffffffffffffffffffffffffffffffffffffffff16630dfe16816040518163ffffffff1660e01b8152600401602060405180830381865afa1580156101fe573d5f5f3e3d5ffd5b505050506040513d601f19601f82011682018060405250810190610222919061069d565b73ffffffffffffffffffffffffffffffffffffffff1681526020018373ffffffffffffffffffffffffffffffffffffffff1663d21220a76040518163ffffffff1660e01b8152600401602060405180830381865afa158015610286573d5f5f3e3d5ffd5b505050506040513d601f19601f820116820180604052508101906102aa919061069d565b73ffffffffffffffffffffffffffffffffffffffff1681526020018373ffffffffffffffffffffffffffffffffffffffff1663ddca3f436040518163ffffffff1660e01b8152600401602060405180830381865afa15801561030e573d5f5f3e3d5ffd5b505050506040513d601f19601f8201168201806040525081019061033291906106f2565b62ffffff168152509050600181908060018154018082558091505060019003905f5260205f2090600302015f909190919091505f820151815f015f6101000a81548173ffffffffffffffffffffffffffffffffffffffff021916908373ffffffffffffffffffffffffffffffffffffffff1602179055506020820151816001015f6101000a81548173ffffffffffffffffffffffffffffffffffffffff021916908373ffffffffffffffffffffffffffffffffffffffff1602179055506040820151816002015f6101000a81548173ffffffffffffffffffffffffffffffffffffffff021916908373ffffffffffffffffffffffffffffffffffffffff16021790555060608201518160020160146101000a81548162ffffff021916908362ffffff160217905550505050505b508080600101915050610096565b505f600160405160200161048191906108d5565b60405160208183030381529060405290506020810181518082f35b828054828255905f5260205f2090600901600a90048101928215610535579160200282015f5b8382111561050457835183826101000a81548162ffffff021916908362ffffff16021790555092602001926003016020816002010492830192600103026104c2565b80156105335782816101000a81549062ffffff0219169055600301602081600201049283019260010302610504565b505b5090506105429190610546565b5090565b5b8082111561055d575f815f905550600101610547565b5090565b5f5ffd5b5f73ffffffffffffffffffffffffffffffffffffffff82169050919050565b5f61058e82610565565b9050919050565b61059e81610584565b81146105a8575f5ffd5b50565b5f815190506105b981610595565b92915050565b5f5f5f606084860312156105d6576105d5610561565b5b5f6105e3868287016105ab565b93505060206105f4868287016105ab565b9250506040610605868287016105ab565b9150509250925092565b7f4e487b71000000000000000000000000000000000000000000000000000000005f52603260045260245ffd5b61064581610584565b82525050565b5f62ffffff82169050919050565b6106628161064b565b82525050565b5f60608201905061067b5f83018661063c565b610688602083018561063c565b6106956040830184610659565b949350505050565b5f602082840312156106b2576106b1610561565b5b5f6106bf848285016105ab565b91505092915050565b6106d18161064b565b81146106db575f5ffd5b50565b5f815190506106ec816106c8565b92915050565b5f6020828403121561070757610706610561565b5b5f610714848285016106de565b91505092915050565b5f81549050919050565b5f82825260208201905092915050565b5f819050815f5260205f209050919050565b5f815f1c9050919050565b5f73ffffffffffffffffffffffffffffffffffffffff82169050919050565b5f61078561078083610749565b610754565b9050919050565b61079581610584565b82525050565b5f8160a01c9050919050565b5f62ffffff82169050919050565b5f6107c76107c28361079b565b6107a7565b9050919050565b6107d78161064b565b82525050565b608082015f5f83015490506107f181610773565b6107fd5f86018261078c565b506001830154905061080e81610773565b61081b602086018261078c565b506002830154905061082c81610773565b610839604086018261078c565b50610843816107b5565b61085060608601826107ce565b5050505050565b5f61086283836107dd565b60808301905092915050565b5f600382019050919050565b5f6108848261071d565b61088e8185610727565b935061089983610737565b805f5b838110156108c857816108af8882610857565b97506108ba8361086e565b92505060018101905061089c565b5085935050505092915050565b5f6020820190508181035f8301526108ed818461087a565b90509291505056fe","linkReferences":{}},"deployedBytecode":{"object":"0x608060405234801561000f575f5ffd5b5060043610610029575f3560e01c8063ac4afa381461002d575b5f5ffd5b6100476004803603810190610042919061013e565b610060565b60405161005794939291906101c5565b60405180910390f35b6001818154811061006f575f80fd5b905f5260205f2090600302015f91509050805f015f9054906101000a900473ffffffffffffffffffffffffffffffffffffffff1690806001015f9054906101000a900473ffffffffffffffffffffffffffffffffffffffff1690806002015f9054906101000a900473ffffffffffffffffffffffffffffffffffffffff16908060020160149054906101000a900462ffffff16905084565b5f5ffd5b5f819050919050565b61011d8161010b565b8114610127575f5ffd5b50565b5f8135905061013881610114565b92915050565b5f6020828403121561015357610152610107565b5b5f6101608482850161012a565b91505092915050565b5f73ffffffffffffffffffffffffffffffffffffffff82169050919050565b5f61019282610169565b9050919050565b6101a281610188565b82525050565b5f62ffffff82169050919050565b6101bf816101a8565b82525050565b5f6080820190506101d85f830187610199565b6101e56020830186610199565b6101f26040830185610199565b6101ff60608301846101b6565b9594505050505056fea2646970667358221220a7f465f46789eef117dec2d6b9839fa5da67d9b65220b1960e2f8970efd4dbbe64736f6c634300081c0033","linkReferences":{}},"methodIdentifiers":{"pools(uint256)":"ac4afa38"},"id":0}