{"abi":[{"type":"constructor","inputs":[{"name":"pools","type":"address[]","internalType":"address[]"}],"stateMutability":"nonpayable"},{"type":"function","name":"reserves","inputs":[{"name":"","type":"uint256","internalType":"uint256"}],"outputs":[{"name":"pool","type":"address","internalType":"address"},{"name":"reserve0","type":"uint112","internalType":"uint112"},{"name":"reserve1","type":"uint112","internalType":"uint112"},{"name":"blockTimestampLast","type":"uint32","internalType":"uint32"}],"stateMutability":"view"}],"bytecode":{"object":"0x608060405234801561000f575f5ffd5b506040516107c63803806107c68339818101604052810190610031919061044d565b5f5f90505b8151811015610264575f5f5f84848151811061005557610054610494565b5b602002602001015173ffffffffffffffffffffffffffffffffffffffff16630902f1ac6040518163ffffffff1660e01b8152600401606060405180830381865afa1580156100a5573d5f5f3e3d5ffd5b505050506040513d601f19601f820116820180604052508101906100c9919061053d565b9250925092505f60405180608001604052808787815181106100ee576100ed610494565b5b602002602001015173ffffffffffffffffffffffffffffffffffffffff168152602001856dffffffffffffffffffffffffffff168152602001846dffffffffffffffffffffffffffff1681526020018363ffffffff1681525090505f81908060018154018082558091505060019003905f5260205f2090600202015f909190919091505f820151815f015f6101000a81548173ffffffffffffffffffffffffffffffffffffffff021916908373ffffffffffffffffffffffffffffffffffffffff1602179055506020820151816001015f6101000a8154816dffffffffffffffffffffffffffff02191690836dffffffffffffffffffffffffffff160217905550604082015181600101600e6101000a8154816dffffffffffffffffffffffffffff02191690836dffffffffffffffffffffffffffff160217905550606082015181600101601c6101000a81548163ffffffff021916908363ffffffff1602179055505050505050508080600101915050610036565b505f5f60405160200161027791906107a5565b60405160208183030381529060405290506020810181518082f35b5f604051905090565b5f5ffd5b5f5ffd5b5f5ffd5b5f601f19601f8301169050919050565b7f4e487b71000000000000000000000000000000000000000000000000000000005f52604160045260245ffd5b6102ed826102a7565b810181811067ffffffffffffffff8211171561030c5761030b6102b7565b5b80604052505050565b5f61031e610292565b905061032a82826102e4565b919050565b5f67ffffffffffffffff821115610349576103486102b7565b5b602082029050602081019050919050565b5f5ffd5b5f73ffffffffffffffffffffffffffffffffffffffff82169050919050565b5f6103878261035e565b9050919050565b6103978161037d565b81146103a1575f5ffd5b50565b5f815190506103b28161038e565b92915050565b5f6103ca6103c58461032f565b610315565b905080838252602082019050602084028301858111156103ed576103ec61035a565b5b835b81811015610416578061040288826103a4565b8452602084019350506020810190506103ef565b5050509392505050565b5f82601f830112610434576104336102a3565b5b81516104448482602086016103b8565b91505092915050565b5f602082840312156104625761046161029b565b5b5f82015167ffffffffffffffff81111561047f5761047e61029f565b5b61048b84828501610420565b91505092915050565b7f4e487b71000000000000000000000000000000000000000000000000000000005f52603260045260245ffd5b5f6dffffffffffffffffffffffffffff82169050919050565b6104e3816104c1565b81146104ed575f5ffd5b50565b5f815190506104fe816104da565b92915050565b5f63ffffffff82169050919050565b61051c81610504565b8114610526575f5ffd5b50565b5f8151905061053781610513565b92915050565b5f5f5f606084860312156105545761055361029b565b5b5f610561868287016104f0565b9350506020610572868287016104f0565b925050604061058386828701610529565b9150509250925092565b5f81549050919050565b5f82825260208201905092915050565b5f819050815f5260205f209050919050565b5f815f1c9050919050565b5f73ffffffffffffffffffffffffffffffffffffffff82169050919050565b5f6105f56105f0836105b9565b6105c4565b9050919050565b6106058161037d565b82525050565b5f6dffffffffffffffffffffffffffff82169050919050565b5f610636610631836105b9565b61060b565b9050919050565b610646816104c1565b82525050565b5f8160701c9050919050565b5f61066a6106658361064c565b61060b565b9050919050565b5f8160e01c9050919050565b5f63ffffffff82169050919050565b5f61069e61069983610671565b61067d565b9050919050565b6106ae81610504565b82525050565b608082015f5f83015490506106c8816105e3565b6106d45f8601826105fc565b50600183015490506106e581610624565b6106f2602086018261063d565b506106fc81610658565b610709604086018261063d565b506107138161068c565b61072060608601826106a5565b5050505050565b5f61073283836106b4565b60808301905092915050565b5f600282019050919050565b5f6107548261058d565b61075e8185610597565b9350610769836105a7565b805f5b83811015610798578161077f8882610727565b975061078a8361073e565b92505060018101905061076c565b5085935050505092915050565b5f6020820190508181035f8301526107bd818461074a565b90509291505056fe","linkReferences":{}},"deployedBytecode":{"object":"0x608060405234801561000f575f5ffd5b5060043610610029575f3560e01c80638334278d1461002d575b5f5ffd5b61004760048036038101906100429190610133565b610060565b60405161005794939291906101e3565b60405180910390f35b5f818154811061006e575f80fd5b905f5260205f2090600202015f91509050805f015f9054906101000a900473ffffffffffffffffffffffffffffffffffffffff1690806001015f9054906101000a90046dffffffffffffffffffffffffffff169080600101600e9054906101000a90046dffffffffffffffffffffffffffff169080600101601c9054906101000a900463ffffffff16905084565b5f5ffd5b5f819050919050565b61011281610100565b811461011c575f5ffd5b50565b5f8135905061012d81610109565b92915050565b5f60208284031215610148576101476100fc565b5b5f6101558482850161011f565b91505092915050565b5f73ffffffffffffffffffffffffffffffffffffffff82169050919050565b5f6101878261015e565b9050919050565b6101978161017d565b82525050565b5f6dffffffffffffffffffffffffffff82169050919050565b6101bf8161019d565b82525050565b5f63ffffffff82169050919050565b6101dd816101c5565b82525050565b5f6080820190506101f65f83018761018e565b61020360208301866101b6565b61021060408301856101b6565b61021d60608301846101d4565b9594505050505056fea2646970667358221220a6ac41ec91d9a0a6665b30b2e8a68373d613c34790849d57cba97d541ff411c564736f6c634300081c0033","linkReferences":{}},"methodIdentifiers":{"reserves(uint256)":"8334278d"},"id":1}