{
  "abi": [
    {
      "inputs": [
        {
          "internalType": "address",
          "name": "factory",
          "type": "address"
        },
        {
          "internalType": "address",
          "name": "tokenA",
          "type": "address"
        },
        {
          "internalType": "address",
          "name": "tokenB",
          "type": "address"
        }
      ],
      "stateMutability": "nonpayable",
      "type": "constructor"
    },
    {
      "inputs": [
        {
          "internalType": "address",
          "name": "_address",
          "type": "address"
        }
      ],
      "name": "is_address_zero",
      "outputs": [
        {
          "internalType": "bool",
          "name": "",
          "type": "bool"
        }
      ],
      "stateMutability": "pure",
      "type": "function"
    }
  ],
  "bytecode": {
    "object": "0x608060405234801561001057600080fd5b5060405161056138038061056183398181016040528101906100329190610300565b600083905060006040518060800160405280606462ffffff1662ffffff1681526020016101f462ffffff168152602001610bb862ffffff16815260200161271062ffffff1681525090506000600467ffffffffffffffff81111561009957610098610353565b5b6040519080825280602002602001820160405280156100d257816020015b6100bf610268565b8152602001906001900390816100b75790505b50905060005b60048110156102015760008473ffffffffffffffffffffffffffffffffffffffff16631698ee82888887866004811061011457610113610382565b5b60200201516040518463ffffffff1660e01b8152600401610137939291906103de565b602060405180830381865afa158015610154573d6000803e3d6000fd5b505050506040513d601f19601f820116820180604052508101906101789190610415565b90506101898161023060201b60201c565b6101f35760405180604001604052808584600481106101ab576101aa610382565b5b602002015162ffffff1681526020018273ffffffffffffffffffffffffffffffffffffffff168152508383815181106101e7576101e6610382565b5b60200260200101819052505b5080806001019150506100d8565b50600081604051602001610215919061053e565b60405160208183030381529060405290506020810180590381f35b60008073ffffffffffffffffffffffffffffffffffffffff168273ffffffffffffffffffffffffffffffffffffffff16149050919050565b6040518060400160405280600062ffffff168152602001600073ffffffffffffffffffffffffffffffffffffffff1681525090565b600080fd5b600073ffffffffffffffffffffffffffffffffffffffff82169050919050565b60006102cd826102a2565b9050919050565b6102dd816102c2565b81146102e857600080fd5b50565b6000815190506102fa816102d4565b92915050565b6000806000606084860312156103195761031861029d565b5b6000610327868287016102eb565b9350506020610338868287016102eb565b9250506040610349868287016102eb565b9150509250925092565b7f4e487b7100000000000000000000000000000000000000000000000000000000600052604160045260246000fd5b7f4e487b7100000000000000000000000000000000000000000000000000000000600052603260045260246000fd5b6103ba816102c2565b82525050565b600062ffffff82169050919050565b6103d8816103c0565b82525050565b60006060820190506103f360008301866103b1565b61040060208301856103b1565b61040d60408301846103cf565b949350505050565b60006020828403121561042b5761042a61029d565b5b6000610439848285016102eb565b91505092915050565b600081519050919050565b600082825260208201905092915050565b6000819050602082019050919050565b610477816103c0565b82525050565b610486816102c2565b82525050565b6040820160008201516104a2600085018261046e565b5060208201516104b5602085018261047d565b50505050565b60006104c7838361048c565b60408301905092915050565b6000602082019050919050565b60006104eb82610442565b6104f5818561044d565b93506105008361045e565b8060005b8381101561053157815161051888826104bb565b9750610523836104d3565b925050600181019050610504565b5085935050505092915050565b6000602082019050818103600083015261055881846104e0565b90509291505056fe",
    "linkReferences": {}
  },
  "deployedBytecode": {
    "object": "0x608060405234801561001057600080fd5b506004361061002b5760003560e01c80630cc0bf3614610030575b600080fd5b61004a600480360381019061004591906100fb565b610060565b6040516100579190610143565b60405180910390f35b60008073ffffffffffffffffffffffffffffffffffffffff168273ffffffffffffffffffffffffffffffffffffffff16149050919050565b600080fd5b600073ffffffffffffffffffffffffffffffffffffffff82169050919050565b60006100c88261009d565b9050919050565b6100d8816100bd565b81146100e357600080fd5b50565b6000813590506100f5816100cf565b92915050565b60006020828403121561011157610110610098565b5b600061011f848285016100e6565b91505092915050565b60008115159050919050565b61013d81610128565b82525050565b60006020820190506101586000830184610134565b9291505056fea2646970667358221220a1656f9a5d7cf2c177579353ba308fc1cf906f370f4665ed179e7ea12ab8daf664736f6c63430008170033",
    "linkReferences": {}
  },
  "methodIdentifiers": {
    "is_address_zero(address)": "0cc0bf36"
  },
  "id": 23
}