{"abi":[{"type":"constructor","inputs":[{"name":"factory","type":"address","internalType":"address"},{"name":"tokenA","type":"address","internalType":"address"},{"name":"tokenB","type":"address","internalType":"address"}],"stateMutability":"nonpayable"},{"type":"function","name":"is_address_zero","inputs":[{"name":"_address","type":"address","internalType":"address"}],"outputs":[{"name":"","type":"bool","internalType":"bool"}],"stateMutability":"pure"}],"bytecode":{"object":"0x608060405234801561000f575f80fd5b506040516105cf3803806105cf8339818101604052810190610031919061035f565b5f8390505f6040518060800160405280606462ffffff1662ffffff1681526020016101f462ffffff168152602001610bb862ffffff16815260200161271062ffffff1681525090505f600467ffffffffffffffff811115610095576100946103af565b5b6040519080825280602002602001820160405280156100ce57816020015b6100bb610296565b8152602001906001900390816100b35790505b5090505f5b6004811015610231575f8473ffffffffffffffffffffffffffffffffffffffff16631698ee82888887866004811061010e5761010d6103dc565b5b60200201516040518463ffffffff1660e01b815260040161013193929190610435565b602060405180830381865afa15801561014c573d5f803e3d5ffd5b505050506040513d601f19601f82011682018060405250810190610170919061046a565b90506101818161025f60201b60201c565b6102235760405180608001604052808273ffffffffffffffffffffffffffffffffffffffff1681526020018873ffffffffffffffffffffffffffffffffffffffff1681526020018773ffffffffffffffffffffffffffffffffffffffff1681526020018584600481106101f7576101f66103dc565b5b602002015162ffffff16815250838381518110610217576102166103dc565b5b60200260200101819052505b5080806001019150506100d3565b505f8160405160200161024491906105ae565b60405160208183030381529060405290506020810180590381f35b5f8073ffffffffffffffffffffffffffffffffffffffff168273ffffffffffffffffffffffffffffffffffffffff16149050919050565b60405180608001604052805f73ffffffffffffffffffffffffffffffffffffffff1681526020015f73ffffffffffffffffffffffffffffffffffffffff1681526020015f73ffffffffffffffffffffffffffffffffffffffff1681526020015f62ffffff1681525090565b5f80fd5b5f73ffffffffffffffffffffffffffffffffffffffff82169050919050565b5f61032e82610305565b9050919050565b61033e81610324565b8114610348575f80fd5b50565b5f8151905061035981610335565b92915050565b5f805f6060848603121561037657610375610301565b5b5f6103838682870161034b565b93505060206103948682870161034b565b92505060406103a58682870161034b565b9150509250925092565b7f4e487b71000000000000000000000000000000000000000000000000000000005f52604160045260245ffd5b7f4e487b71000000000000000000000000000000000000000000000000000000005f52603260045260245ffd5b61041281610324565b82525050565b5f62ffffff82169050919050565b61042f81610418565b82525050565b5f6060820190506104485f830186610409565b6104556020830185610409565b6104626040830184610426565b949350505050565b5f6020828403121561047f5761047e610301565b5b5f61048c8482850161034b565b91505092915050565b5f81519050919050565b5f82825260208201905092915050565b5f819050602082019050919050565b6104c781610324565b82525050565b6104d681610418565b82525050565b608082015f8201516104f05f8501826104be565b50602082015161050360208501826104be565b50604082015161051660408501826104be565b50606082015161052960608501826104cd565b50505050565b5f61053a83836104dc565b60808301905092915050565b5f602082019050919050565b5f61055c82610495565b610566818561049f565b9350610571836104af565b805f5b838110156105a1578151610588888261052f565b975061059383610546565b925050600181019050610574565b5085935050505092915050565b5f6020820190508181035f8301526105c68184610552565b90509291505056fe","linkReferences":{}},"deployedBytecode":{"object":"0x608060405234801561000f575f80fd5b5060043610610029575f3560e01c80630cc0bf361461002d575b5f80fd5b610047600480360381019061004291906100f2565b61005d565b6040516100549190610137565b60405180910390f35b5f8073ffffffffffffffffffffffffffffffffffffffff168273ffffffffffffffffffffffffffffffffffffffff16149050919050565b5f80fd5b5f73ffffffffffffffffffffffffffffffffffffffff82169050919050565b5f6100c182610098565b9050919050565b6100d1816100b7565b81146100db575f80fd5b50565b5f813590506100ec816100c8565b92915050565b5f6020828403121561010757610106610094565b5b5f610114848285016100de565b91505092915050565b5f8115159050919050565b6101318161011d565b82525050565b5f60208201905061014a5f830184610128565b9291505056fea264697066735822122028daadc88078b10851931f5140de9e5683208712e7e34ecde13dfbffefc85e4664736f6c63430008170033","linkReferences":{}},"methodIdentifiers":{"is_address_zero(address)":"0cc0bf36"},"id":23}